:020000040800F2
:10000000C00400209D01000887100008F10F0008BF
:100010008510000823040008C11500080000000036
:10002000000000000000000000000000AB1000080D
:100030002504000800000000A9100008AD10000809
:10004000B7010008B7010008B7010008B7010008B0
:10005000B7010008B7010008B7010008B7010008A0
:10006000B7010008B7010008B7010008B701000890
:10007000B7010008B7010008B7010008B701000880
:10008000B7010008B7010008B7010008B701000870
:10009000B7010008B7010008B7010008B701000860
:1000A000B7010008B7010008B7010008B701000850
:1000B000B7010008B7010008B7010008B701000840
:1000C000B7010008B7010008B7010008B701000830
:1000D000B7010008B5150008B7010008B70100080E
:1000E000B7010008B7010008B7010008B701000810
:1000F000B7010008B7010008B7010008B701000800
:10010000B7010008B7010008B7010008B7010008EF
:10011000B7010008B7010008B7010008B7010008DF
:10012000B7010008B7010008B7010008B7010008CF
:10013000B7010008B7010008B7010008B7010008BF
:10014000B7010008B7010008B7010008B7010008AF
:10015000B7010008B7010008B7010008B70100089F
:10016000B7010008B7010008B7010008B70100088F
:10017000B7010008B7010008B7010008000000003F
:10018000B7010008B7010008DFF80CD000F0D6F87E
:100190000048004761190008C00400200648804755
:1001A00006480047FEE7FEE7FEE7FEE7FEE7FEE75C
:1001B000FEE7FEE7FEE7FEE73511000889010008CB
:1001C0002DE9F05F0546002092469B46884606468C
:1001D000814640241BE0284641464746224600F01F
:1001E00064F853465A46C01A914110D31146184636
:1001F000224600F04BF82D1A67EB01084F462246C5
:100200000120002100F042F817EB00094E41201EAA
:10021000A4F10104DFDC484631462A464346BDE8E6
:10022000F09FD2B201E000F8012B491EFBD27047CB
:100230000022F6E710B513460A4604461946FFF7B2
:10024000F0FF204610BD70B5064601F0CFF90468F6
:1002500005460A220021304600F037F82C6070BDB8
:1002600030B50B46014600202022012409E021FA86
:1002700002F59D4205D303FA02F5491B04FA02F583
:100280002844151EA2F10102F1DC30BD202A04DB56
:10029000203A00FA02F1002070479140C2F1200399
:1002A00020FA03F3194390407047202A04DB203AD8
:1002B00021FA02F00021704721FA02F3D040C2F186
:1002C000200291400843194670472DE9F0479146B6
:1002D0000F4680460446002614F8015B2DB100F05D
:1002E0003FF80068405DC007F6D12B2D02D02D2DC0
:1002F00018D0641E4A463946204600F035F827B12A
:100300003968A14201D1C7F8008071054FF002049D
:100310000BD54042002803DD01F068F90460A00716
:10032000BDE8F08746F48066E4E70028F8DA01F0DB
:100330005DF904606FF00040F2E70000064C074DE5
:1003400006E0E06840F0010394E8070098471034A5
:10035000AC42F6D3FFF71CFFDC1A0008FC1A0008B9
:1003600000487047D81A00082DE9F05F82460078EF
:10037000002715468B460AF10104B946302801D002
:100380009DB113E014F8010B0127782803D05828F9
:1003900001D045B10AE00DB1102D07D1002710257D
:1003A00014F8010B02E0082500E00A250026B046FB
:1003B0000EE005FB080005FB06F1012701EB1046E6
:1003C0001FFA80F8B6F5803F00D3B94614F8010B48
:1003D000294600F018F80028EBDABBF1000F05D031
:1003E0000FB1641E00E05446CBF80040B9F1000F95
:1003F00006D001F0FBF802210160C81EBDE8F09FA5
:1004000048EA0640FAE73A2800D2303820F02002C5
:10041000412A01D3A2F13700884201D34FF0FF30C7
:100420007047FEE7704790F83510022903D080210D
:10043000416501207047052180F83510006801688A
:1004400021F00101016000207047000070B50446F2
:1004500000F0F4F80546601C02D00448007804441B
:1004600000F0ECF8401BA042FAD370BD0800002059
:100470002DE9F84FDFF87CB100224FF001084FF072
:10048000030A4FF00F090BF1040E00BF0B6808FAC6
:1004900002F42340A3426ED14D68022D01D0122DEB
:1004A0000ED1D50800EB850CDCF820505607F70E6E
:1004B00009FA07F6B5430E69BE402E43CCF820601A
:1004C000066855000F790AFA05FC07F0030726EACB
:1004D0000C06AF40374307604E68012E05D0022E50
:1004E00003D0112E01D0122E0ED18668CF6826EAD5
:1004F0000C06AF40374387604668A6430C79C4F3C7
:100500000014944034434460C6688C6826EA0C06A4
:10051000AC403443C4604C68E40065D5364C256873
:1005200045F480452560246822F0030504F48044E6
:100530000094324C2E19D6F8084895072F0F09FA67
:1005400007F5AC432E4DA84201D1002524E02D4DE6
:10055000A84201D101251FE02B4DA84201D102255F
:100560001AE02A4DA84201D1032515E0284DA842E2
:1005700002D1042510E037E0264DA84201D105251F
:100580000AE0254DA84201D1062505E0234DA842E9
:1005900001D1072500E00825BD402543C6F80858CD
:1005A000DBF800405D464E689C43F60300D51C43D3
:1005B0002C60DEF8004075464E689C43B60300D5BB
:1005C0001C432C600B4D08352C684E689C43F6028A
:1005D00000D51C432C60074D0C352C684E689C439D
:1005E000B60200D51C432C60521C102AFFF44EAFFB
:1005F000BDE8F88F003C0140443802400030014023
:10060000000002400004024000080240000C0240CA
:10061000001002400014024000180240001C02407A
:100620000069084000D00120704742694A40426199
:1006300070470AB1816170470904FBE7014880688F
:1006400070470000080000200248816802781144C9
:1006500081607047080000200B4810B5016841F424
:1006600000710160016841F480610160016841F43A
:1006700080710160032000F06FF8002000F006F8A0
:1006800000F024F8002010BD003C024070B50D4D74
:1006900004464FF47A712878B1FBF0F00A490968F2
:1006A000B1FBF0F000F0E0FA48B9102C07D20022BC
:1006B0002146501E00F030F800206C6070BD012013
:1006C00070BD000008000020140000200B4882B01C
:1006D000016841F480410160006800F480400090AE
:1006E0000648001F016841F080510160006800F079
:1006F00080500090072002B000F02EB8443802402D
:1007000000F01F02012191404009800000F1E0202B
:10071000C0F8001170470000F0B40E4B1B680C4687
:10072000C3F30223C3F10705042D00D90425191DC5
:10073000072901D2002300E0DB1E012606FA05F19D
:10074000491E214099409E40761E16403143F0BC20
:1007500000F09ABC0CED00E0064900F007020868C2
:100760004FF6FF03184040EA0220034A1043086096
:10077000704700000CED00E00000FA052DE9F0479D
:100780000E46050065D0DFF81481D8F80000F7B2F6
:1007900000F00F00B04207D288F80070D8F80000CF
:1007A00000F00F00B04254D128683D4C810712D5AB
:1007B000400703D5206840F4E05020602878000707
:1007C00003D5206840F4604020602068A96820F0CC
:1007D000F000084320602878C0072DD030496868B1
:1007E0000839012812D0022813D0032811D0096833
:1007F000890700292DDA216821F0030101432160D6
:10080000FFF71CFF814641F2883A0EE00968890330
:10081000EFE709688901ECE7FFF710FFA0EB09019A
:10082000514502D90320BDE8F0872068696800F0CF
:100830000C00B0EB810FEFD1D8F80010404601F06A
:100840000F01B14207D90770006800F00F00B042F5
:1008500001D00120E7E72878400705D52068E9683E
:1008600020F4E050084320602878000706D520686F
:10087000296920F4604040EAC100206000F036F8A9
:100880002168084AC1F30311515CC8400649086059
:100890000020FFF7FBFE0020C5E70000003C0240FF
:1008A000083802403C1A000814000020044805499A
:1008B00000680968044AC1F38221515CC84070474E
:1008C00014000020083802404C1A0008044805496A
:1008D00000680968044AC1F34231515CC84070475E
:1008E00014000020083802404C1A0008154810B5C2
:1008F000006810F00C02144813D04110042A0FD0E5
:10090000082A0ED10F4C241F2268236802F03F02F0
:100910005B0207D52068C0F38810A0FB010106E048
:10092000084610BD2168C1F38811A1FB0001002316
:10093000FFF746FC2168C1F30141491C4900B0FBA7
:10094000F1F010BD083802400024F4002DE9F84F02
:10095000050076D02878DFF8F8B2BE4CC00749D041
:10096000DBF800105846C1F38101012908D0006866
:10097000C0F3810002280AD1201D0068400206D57C
:100980002068800336D568680028E2D032E06868C5
:10099000B0F5803F10D0B0F5A02F206810D020F423
:1009A00080302060206820F4802020606868A0B13A
:1009B000FFF744FE06460CE0206840F48030F4E780
:1009C00040F480202060F7E7FFF738FE801B6428A2
:1009D00073D820688003F7D50CE0FFF72FFE06469A
:1009E00005E000BFFFF72AFE801B6428F0D82068CE
:1009F0008003F7D42878DFF8608280074FF0000981
:100A00003ED5DBF80010584611F00C0F09D00068F5
:100A1000C0F3810002280BD18D48001F00684002FE
:100A200006D42068800715D5E868012809D111E0AF
:100A3000E868B8B10120C8F80000FFF7FFFD0646DE
:100A400005E002E1FFF7FAFD801B0228C0D820680C
:100A50008007F7D52068296920F0F80040EAC10036
:100A600020600DE0C8F80090FFF7E8FD064604E0BE
:100A7000FFF7E4FD801B02281FD820688007F7D409
:100A80002878000722D5724E744869696C3671B1B6
:100A900001210160FFF7D2FD074604E0FFF7CEFD1C
:100AA000C01B022809D830688007F7D50EE0C0F8CF
:100AB0000090FFF7C3FD074605E083E0FFF7BEFDAA
:100AC000C01B02287ED830688007F7D428784007FA
:100AD00068D5DFF87CA100270AF1380ADAF80000AF
:100AE000C0000BD4DAF8001041F08051CAF80010B1
:100AF000DAF80000012700F080500090584E30686E
:100B0000C00510D4306840F480703060FFF796FD67
:100B1000009005E0FFF792FD0099401A022851D895
:100B20003068C005F6D54A4EA868683601280FD04F
:100B30000528306810D020F001003060306820F0C7
:100B400004003060A868B8B1FFF778FD00900FE0AE
:100B5000306840F00100F4E740F004003060F7E74F
:100B6000FFF76CFD0099411A41F28830814264D848
:100B700030688007F4D50EE0FFF760FD009007E0D5
:100B8000FFF75CFD0099411A41F28830814254D848
:100B900030688007F4D42FB1DAF8001021F08051CA
:100BA000CAF80010A869C0B3DBF80010C1F38101D6
:100BB00002294AD00228484607D0C8F86000FFF74B
:100BC0003DFD00E039E005463AE04746C8F86000E0
:100BD000FFF734FD064604E0FFF730FD801B0228D6
:100BE0002BD820688001F7D4D5E907010843A96A0A
:100BF0001C4A490802EB01416A6A41EA8211084332
:100C000095F82C1040EA01611148001F0160012095
:100C10003866FFF713FD054605E014E0FFF70EFD0B
:100C2000401B022809D820688001F7D50BE000BFDF
:100C3000FFF704FD401B022802D90320BDE8F88F0E
:100C400020688001F4D40020F8E70120F6E70000D6
:100C5000083802400038024000004742800E4742F8
:100C6000007000400000FFFF10B5401EB0F1807F13
:100C700001D3012010BD4FF0E02460610F21601707
:100C800000F002FA0020A06107202061002010BDC2
:100C90007047000070B5026804461068D168536957
:100CA00010F00F0F50D003F0010501F4907635439A
:100CB0005DD0C20705D0CA0503D5E26B42F0010240
:100CC000E263420705D5DA0703D0E26B42F0020285
:100CD000E263820705D5DA0703D0E26B42F0040233
:100CE000E263020705D5DA0703D0E26B42F008029F
:100CF000E263E26B002A33D0800604D5880602D571
:100D0000204600F057FA20684069E16BC0F380107C
:100D1000090700D428B3204600F03EFA2068416954
:100D200049061AD5416921F040014161606BA0B1CB
:100D30001B490165606BFFF776FB002810D0606BE4
:100D4000016DBDE870400847830610D58B060ED5AF
:100D50002046BDE8704000F02DBA2046FFF798FF0E
:100D600070BD2046FFF794FF0020E06370BD0306CE
:100D700006D50B0604D52046BDE8704000F0B6BB92
:100D80004006F3D54806F1D5D168204621F0400150
:100D9000D160202184F8391000F029F970BD0000DD
:100DA0008911000870B5040004D094F839000025BA
:100DB00010B106E0012070BD84F83850204600F0E4
:100DC00023F8242084F839002068C16821F40051F8
:100DD000C160204600F034FA2068016921F4904196
:100DE00001612068416921F02A0141612068C168E0
:100DF00041F40051C160E563202084F8390084F893
:100E00003A00002070BD000010B586B004461421E1
:100E10006846FFF70DFA17492068884228D116481E
:100E2000016841F010010160006800F010000590B9
:100E300011481438016841F00201016000686946F8
:100E400000F002000590C0200090022001900120D7
:100E5000029003200390072004900848FFF708FB46
:100E6000002211462520FFF757FC2520FFF748FCFC
:100E700006B010BD0010014044380240000402409A
:100E800090F83A30202B1DD1D1B1CAB190F838304A
:100E9000012B17D081628285C2850021C163222285
:100EA00080F83A2080F8381001684A6942F001025F
:100EB0004A610068C16841F49071C16000207047C8
:100EC000012070470220704710B5044601225103EB
:100ED0001448FFF7AEFB14492068884221D1134C17
:100EE000134B0022217829B900201A54401CC0B2AB
:100EF0006428FAD30D48401C00780D2803D05854BC
:100F0000491C217004E022700948FFF79CF96060D9
:100F1000064907480122491CBDE810404038FFF748
:100F2000AFBF10BD000C02400010014000000020C7
:100F30005C0000202DE9F843044690F839001F4674
:100F400016460D46202850D1A5B19EB194F8380020
:100F500001284AD0012084F838004FF00008C4F876
:100F60003C80212084F83900FFF768FBA684814685
:100F7000E68426E00120BDE8F883E08C401EE08492
:100F8000A0684B46B0F5805F4FF000024FF0800143
:100F90002046009703D000F0DAFAE8B90DE000F03F
:100FA000D6FAC8B928882168C0F3080048602069CB
:100FB00008B16D1C05E0AD1C03E0216815F8010BBC
:100FC0004860E08C0028D8D14B46002240212046C2
:100FD000009700F0BCFA08B10320CCE7202084F889
:100FE000390084F838800020C5E70220C3E7704745
:100FF000FEE70000F0B587B014216846FFF718F946
:101000001D480024016841F080010160016801F081
:1010100080010591016841F001010160016801F062
:1010200001010591016841F008010160016801F0CA
:1010300008010591016841F00201016000680F4F4D
:1010400000F002004FF44056059000223146384629
:10105000FFF7EFFA0125CDE90054694608480294EC
:10106000FFF706FA0096CDE9015469463846039425
:10107000FFF7FEF907B0F0BD30380240000C024027
:1010800000000240FEE770470907090E002806DA53
:1010900000F00F0000F1E02080F8141D704700F10F
:1010A000E02080F80014704770477047FFF7CCBA13
:1010B00030B593B030216846FFF7BAF814210CA878
:1010C000FFF7B6F819480025016841F0805101602A
:1010D000006800F0805011901548016841F480418B
:1010E00001600068022400F480401190012000900B
:1010F000000401908001CDE9064004200890A8205A
:10110000CDE9090407200B906846FFF71FFC0CA9E6
:101110000F2081E831004FF4A0500F90E0021090B2
:1011200005210CA8FFF72AFB13B030BD4038024060
:10113000007000401048016841F4700101600F48E0
:10114000016841F0010101600C4A00210832116080
:1011500002680B4B1A400260031D0A4A1A600268BB
:1011600022F48022026005480C30016002495806D2
:10117000803908607047000088ED00E000380240C8
:10118000FFFFF6FE1030002410B5806B0021C185F2
:10119000C184FFF77DFD10BD0168CA6822F490721A
:1011A000CA6001684A6922F001024A61202180F880
:1011B0003A10704710B590F83A10222901D0022059
:1011C00010BD8168B1F5805F11D001690029016807
:1011D0001FD0496801F07F03816A4A1C82620B704C
:1011E000C18D491E0904090CC18518D026E0026989
:1011F000816A002A0268526805D0D2B20A80816AE8
:10120000491C8162ECE7C2F308020A80816A891CEA
:10121000F7E74A68816A4B1C83620A70E0E701685D
:10122000CA6822F49072CA6001684A6922F0010219
:101230004A61202180F83A10FFF746FE002010BDD9
:101240002DE9F04104460068016921F44052E1684B
:10125000114301612168C86849F20C629043236917
:10126000A268E5691A4363692B431A430243CA60C3
:101270002168486920F44072A06910434861E1691F
:101280006425B1F5004F9748974A21684FF032081E
:101290003FD0914201D081427CD1FFF717FB00EB98
:1012A000C00101EB001061688900B0FBF1F6FFF7A7
:1012B0000DFB00EBC00101EB001061688900B0FB81
:1012C000F1F0B0FBF5F06FF01801484306EB800138
:1012D00008EB0110B0FBF5F000F0F006FFF7F6FAAE
:1012E00000EBC00101EB001061688900B0FBF1F078
:1012F000B0FBF5F006EB0016FFF7E8FA00EBC001D3
:1013000001EB001061688900B0FBF1F7FFF7DEFA2E
:10131000D2E0914201D081423DD1FFF7D7FA00EBF4
:10132000C00101EB001061684900B0FBF1F0B0FBB7
:10133000F5F00601FFF7CAFA00EBC00101EB00105F
:1013400061684900B0FBF1F7FFF7C0FA00EBC0019C
:1013500001EB001061684900B0FBF1F0B0FBF5F063
:101360006FF01801484307EB800108EBC100B0FBA8
:10137000F5F000F0F80006EB4006FFF7A7FA00EBE7
:10138000C00101EB001061684900B0FBF1F7FFF705
:101390009DFA3CE055E0FFF789FA00EBC00101EB54
:1013A000001061684900B0FBF1F0B0FBF5F00601F8
:1013B000FFF77CFA00EBC00101EB00106168490007
:1013C000B0FBF1F7FFF772FA00EBC00101EB001080
:1013D00061684900B0FBF1F0B0FBF5F06FF0180167
:1013E000484307EB800108EBC100B0FBF5F000F0CB
:1013F000F80006EB4006FFF759FA00EBC00101EBDD
:10140000001061684900B0FBF1F7FFF74FFA00EBFD
:10141000C00101EB001061684900B0FBF1F0B0FBC6
:10142000F5F06FF01801484307EB800108EBC100AD
:10143000B0FBF5F000F00700216830448860BDE89B
:10144000F081FFF733FA00EBC00101EB0010616897
:101450008900B0FBF1F6FFF729FA00EBC00101EBC0
:10146000001061688900B0FBF1F0B0FBF5F06FF09F
:101470001801484306EB800108EB0110B0FBF5F0C2
:1014800000F0F006FFF712FA00EBC00101EB0010CC
:1014900061688900B0FBF1F0B0FBF5F006EB0016D7
:1014A000FFF704FA00EBC00101EB0010616889004E
:1014B000B0FBF1F7FFF7FAF900EBC00101EB001008
:1014C00061688900B0FBF1F0B0FBF5F06FF0180136
:1014D000484307EB800108EB0110B0FBF5F000F08A
:1014E0000F00A9E7001401400010014090F83910E6
:1014F000212901D0022070478168B1F5805F016A1F
:101500000BD04A1C0262026809785160C18C491EE6
:101510000904090CC1840ED017E009880268C1F3E0
:101520000801516001690029016A02D0491C016269
:10153000ECE7891CFBE70168CA6822F08002CA60F8
:101540000068C16841F04001C160002070472DE98A
:10155000F041984617460E460446069D1DE0681C5D
:101560001BD02DB1FFF76AF8A0EB0800A84214D9F0
:101570002068C16821F4D071C1602068416921F000
:1015800001014161202084F8390084F83A000020EC
:1015900084F838000320BDE8F0812068006836EA4E
:1015A000000004D00020B842D9D00020F3E7012089
:1015B000F9E700000148FFF76DBB00001C000020A8
:1015C000FEE700000FB4084B10B504A902AA039867
:1015D00000F020F8044602A9002000F0BCF92046E3
:1015E00010BC5DF814FB0000571900080048704754
:1015F0001800002002E008C8121F08C1002AFAD112
:1016000070477047002001E001C1121F002AFBD182
:10161000704700002DE9FF4F8BB088460546002635
:1016200006E025280BD0DDE90D1290476D1C761CD5
:1016300028780028F5D10FB03046BDE8F08F00249F
:10164000A146A2460122AE4900E0044315F8013F3D
:10165000203B02FA03F00842F7D128782A2810D05C
:101660006FF02F022878A0F13001092915D809EB75
:10167000890102EB410144F0020400EB01096D1CF9
:10168000F0E758F8041B5FEA010903D544F400545D
:10169000C9F1000944F002046D1C28782E2817D1E6
:1016A00015F8010F44F004042A280ED06FF02F0221
:1016B0002878A0F1300109290AD80AEB8A0102EB47
:1016C000410100EB010A6D1CF2E758F804AB6D1CF8
:1016D00028786C280FD006DC4C2817D068280DD04D
:1016E0006A2814D104E0742810D07A280FD10DE0B4
:1016F00044F400140AE044F4801401E044F440147B
:101700006978814202D104F580146D1C6D1C287823
:10171000692865D006DC00288DD0632827D064288E
:1017200006D15DE06E2808D073282AD0752877D0BE
:10173000DDE90D129047761CE0E0C4F30250022868
:1017400009D003280DD0D8F8001004280DD00E6061
:1017500008F10408D2E0D8F80010F217C1E90062DD
:10176000F6E7D8F800100E80F2E70E70F0E718F8F0
:10177000041B8DF8001000208DF80100EB460120BD
:1017800003E058F804BB4FF0FF3061074FF000074B
:1017900001D40AE07F1C57450DDA8742FADB1BF8BB
:1017A00007100029F6D106E07F1C8742FCDB1BF8FE
:1017B00007100029F8D1DDE90D23A9EB07008146C8
:1017C000214600F0B1F83044C61904E0DDE90D12FD
:1017D0001BF8010B90477F1EF8D22146484688E04F
:1017E00058F8040BC4F302514FF00A0B032900D13F
:1017F00000B2042900D140B2002802DA40422D2173
:1018000002E0210505D52B218DF82410012104E0EB
:1018100006E0E10710D02021F6E708AF089113E0B9
:1018200058F8040BC4F302514FF00A0B032900D1FE
:1018300080B2042900D1C0B20021EEE75946FEF77C
:101840000FFD303107F8011D0028F7D1ADEB07007F
:1018500000F1200B600702D524F4803401E04FF042
:10186000010ADA4502DDAAEB0B0000E00020824607
:1018700000EB0B0108980144A9EB01000A90E0037A
:1018800006D4DDE90D2321460A9800F04DF8064400
:101890004FF0000908E009A911F80900DDE90D126F
:1018A000904709F10109761C08998945F3DBE003AB
:1018B0000CD5DDE90D2321460A9800F035F80644E1
:1018C00004E0DDE90D1230209047761CBAF10001EA
:1018D000AAF1010AF5DC05E0DDE90D1217F8010BAC
:1018E0009047761CBBF10001ABF1010BF4DC0A98C8
:1018F0002146DDE90D2300F005F806446D1C97E64E
:10190000092801002DE9F041044600251E4617462E
:10191000880404D405E039462020B0476D1C641EBD
:10192000F9D52846BDE8F0812DE9F04104460025AF
:101930001E469046C80301D5302700E020278804C2
:1019400004D505E041463846B0476D1C641EF9D504
:101950002846BDE8F0810A68531C0B601070704780
:101960001FB50024FEF778FEFFF7A2FBFFF742FB4E
:101970002C4D2B480C2128604FF4E130686000208A
:10198000A860E860C5E90401A861E8612846FFF79E
:1019900009FA2868C16841F04001C160012222496A
:1019A0002846FFF76DFA214EDFF8849000254FF4AA
:1019B00080580122474641463046FEF73AFE6420F1
:1019C000FEF744FD002239463046FEF732FE642021
:1019D000FEF73CFD01214F464846FEF721FE012857
:1019E00000D12CB101213846FEF71AFE40B10AE0C1
:1019F0004FF4005130466D1CFEF717FE012402E043
:101A0000012C00D100242A460AA16846FFF7DAFD1E
:101A100082B2642369460348FFF78CFAC9E70000E5
:101A2000001001401C00002001000020000C0240BA
:101A3000000002402564200A0000000000000000B1
:101A4000000000000102030406070809000000006E
:101A500001020304004040404040404040404141BA
:101A60004141414040404040404040404040404073
:101A7000404040404005020202020202020202020D
:101A8000020202020220202020202020202020020A
:101A9000020202020202909090909090101010109A
:101AA0001010101010101010101010101010101036
:101AB00002020202020288888888888808080808CA
:101AC0000808080808080808080808080808080896
:101AD0000202020240000000551A0008FC1A000829
:101AE000000000201C000000F4150008181B00086E
:101AF0001C000020A40400000416000800000000E0
:101B000000000000010000001000000000000000C4
:081B10000024F40000000000B5
:040000050800018965
:00000001FF
